:100000000C945D000C9485000C9485000C94850084
:100010000C9485000C9485000C9485000C9485004C
:100020000C9485000C9485000C9485000C9485003C
:100030000C9485000C9485000C9485000C9485002C
:100040000C9479020C9485000C9485000C94850026
:100050000C9485000C9485000C9485000C9485000C
:100060000C9485000C94850000000008000201003B
:100070000003040700000000000000000000000072
:10008000250028002B0000000000240027002A0083
:10009000040404040404040402020202020203032E
:1000A0000303030301020408102040800102040836
:1000B0001020010204081020430411241FBECFEFBA
:1000C000D8E0DEBFCDBF11E0A0E0B1E0E4EBFCE0A2
:1000D00002C005900D92A832B107D9F721E0A8E23D
:1000E000B1E001C01D92AD34B207E1F710E0CDE5FB
:1000F000D0E004C02197FE010E944D06CC35D10707
:10010000C9F70E94C3020C9458060C94000090E0BA
:10011000FC01EC55FF4F2491FC01E057FF4F849107
:10012000882399F090E0880F991FFC01EA57FF4F50
:10013000A591B491FC01E458FF4F859194918FB73C
:10014000F894EC91E22BEC938FBF089590E0FC01C2
:10015000E859FF4F2491FC01EC55FF4F3491FC010D
:10016000E057FF4FE491EE2309F43CC0222339F11C
:10017000233091F038F42130A9F0223001F584B514
:100180008F7D12C0273091F02830A1F02430B9F4CF
:10019000809180008F7D03C0809180008F77809355
:1001A00080000DC084B58F7784BD09C08091B000F8
:1001B0008F7703C08091B0008F7D8093B000F0E016
:1001C000EE0FFF1FE458FF4FA591B4919FB7F8942D
:1001D000611104C08C913095382302C0EC913E2B04
:1001E0003C939FBF0895CF92DF92EF92FF920F93BF
:1001F0001F93CF93DF936C017A018B01C0E0D0E0B5
:10020000CE15DF0581F0D8016D918D01D601ED91FC
:10021000FC910190F081E02DC6010995892B11F028
:100220002196EECF7E01C701DF91CF911F910F91F3
:10023000FF90EF90DF90CF900895CF93DF93EC0184
:1002400060E08E810E94A60061E08E810E94A6007F
:1002500060E08E810E94A6008BE891E00197F1F7A3
:10026000DF91CF910895CF92DF92EF92FF920F939B
:100270001F93CF93DF936C017C0187E0E80EF11CA4
:10028000C0E0D0E0062F10E0B8010C2E02C075953A
:1002900067950A94E2F76170F70181917F010E94EE
:1002A000A6002196C430D10579F7C601DF91CF9120
:1002B0001F910F91FF90EF90DF90CF900C941D0154
:1002C000CF92DF92EF92FF920F931F93CF93DF9322
:1002D000EC01F62E642F8C810E94A6008D818F3F49
:1002E00019F060E00E94A6008F850F2D10E084FFBA
:1002F00025C06E0187E0C80ED11CE12CF12CB8019D
:100300000E2C02C0759567950A94E2F76170F601AC
:1003100081916F010E94A600FFEFEF1AFF0A88E0AB
:10032000E816F10461F7CE01DF91CF911F910F9193
:10033000FF90EF90DF90CF900C941D01B80184E006
:10034000759567958A95E1F7CE010E9433016F2D6F
:10035000CE01DF91CF911F910F91FF90EF90DF9031
:10036000CF900C94330140E0682F85E391E00C942A
:100370006001CF93DF93823028F090914401986020
:1003800090934401809348011092490180E4809346
:100390004A0180E180934B0180E580934C0180917C
:1003A00039010E94870080913A018F3F11F00E942D
:1003B000870080913B010E948700C5E3D1E09E0148
:1003C000255331408091440184FD03C084E090E0D6
:1003D00002C088E090E021962817390724F48E8126
:1003E0000E948700ECCF8BE39DE00197F1F760E07E
:1003F000809139010E94A60060E080913B010E943B
:10040000A60080913A018F3F19F060E00E94A6009B
:100410008091440184FD20C063E085E391E00E9467
:100420003301CBE4D6E4CE010197F1F763E085E335
:1004300091E00E9433012197F1F763E085E391E0B9
:100440000E94330183E592E00197F1F762E085E3D2
:1004500091E00E94330115C080620E94B3018BE4D9
:1004600096E40197F1F78091440180620E94B30104
:1004700083E592E00197F1F78091440180620E9448
:10048000B3018091440180620E94B30184E08093B3
:1004900045018CE00E94B30181E00E94B3018BE32F
:1004A0009FE10197F1F782E08093460186E0DF91BA
:1004B000CF910C94B30141E00E94600181E090E093
:1004C0000895089580E090E00895009769F0FC0198
:1004D00001900020E9F73197AF01481B590BBC018F
:1004E00085E391E00C94F30080E090E008950E9491
:1004F00053061F920F920FB60F9211242F933F9322
:100500008F939F93AF93BF9380913101909132016C
:10051000A0913301B09134013091300123E0230FD9
:100520002D3720F40196A11DB11D05C026E8230F2B
:100530000296A11DB11D209330018093310190934B
:100540003201A0933301B093340180912C0190913A
:100550002D01A0912E01B0912F010196A11DB11D79
:1005600080932C0190932D01A0932E01B0932F0125
:10057000BF91AF919F918F913F912F910F900FBE9F
:100580000F901F901895CF93DF93CDB7DEB7A2974A
:100590000FB6F894DEBF0FBECDBF789484B58260ED
:1005A00084BD84B5816084BD85B5826085BD85B517
:1005B000816085BD80916E00816080936E00109295
:1005C0008100809181008260809381008091810010
:1005D00081608093810080918000816080938000A1
:1005E0008091B10084608093B1008091B0008160FF
:1005F0008093B00080917A00846080937A0080912B
:100600007A00826080937A0080917A008160809382
:100610007A0080917A00806880937A001092C100FD
:1006200082E00E94B901E1E0809148018111E0E09F
:10063000E195F0E0EB5CFE4F848980680E94B30195
:100640009AE0892E912CA12CB12C80E480937C001F
:1006500080917A00806480937A0080917A0086FD90
:10066000FCCF609178008091790070E0782B072EA4
:10067000000C880B990B0E94040526EF38E24CE928
:1006800050E40E94B905609328017093290180937A
:100690002A0190932B018CE091E00E946502E09189
:1006A0004801E23010F4E15001C0E1E0F0E0EB5C21
:1006B000FE4F848980680E94B301C0902801D090C9
:1006C0002901E0902A01F0902B01A7019601C701B2
:1006D000B6010E942606882319F089E191E01AC02C
:1006E00026013701E89477F82FEF3FEF4FE75FE7F8
:1006F000C301B2010E94260681110FC02FEF3FEF08
:100700004FE75FE7C301B2010E94CE0418162CF434
:100710008DE191E00E9465029DC02FEF3FEF4FE712
:100720005FE4C701B6010E94B40518161CF481E20B
:1007300091E0F0CF2FEF3FEF4FE75FECC701B6013D
:100740000E94CE0487FDF3CF20E030E0A901C7016D
:10075000B6010E94CE0487FF0AC041E06DE285E346
:1007600091E00E946001F7FAF094F7F8F0942AE023
:1007700037ED43EA5BE3C701B6010E9462042B0137
:100780003C010E94D3046B017C010E9402059B0185
:10079000AC01C301B2010E9461041B012C0119A22A
:1007A0008E010F5D1F4F0AA3712EC701B601A5016F
:1007B00094010E942B0669017A01605DF801629341
:1007C0008F01232B242B252B81F7CF010E9465025B
:1007D00041E06EE285E391E00E94600183E0F82E43
:1007E000FA94FF20B9F120E030E040E251E4C20188
:1007F000B1010E94B9051B012C010E94D3049B0189
:1008000040E050E019A20AA1172D662EC32ED42E67
:10081000E52ECA01B901A50194010E942B06605D75
:10082000F80162938F01211531054105510589F7C2
:10083000CF010E946502662D7C2D8D2D9E2D0E947C
:1008400002059B01AC01C201B1010E9461041B01C0
:100850002C01C6CF85E291E00E946502E1E0809123
:1008600048018111E0E0E195F0E0EB5CFE4F848906
:1008700080680E94B30180E090E0892B09F4E5CE06
:100880000E940000E2CEE5E3F1E01382128284E0F0
:1008900091E0918380838CE084838FEF85838BE06C
:1008A00086838AE0878389E0808788E0818787E084
:1008B00082871386148615861686178681E00C9427
:1008C000B9015058BB27AA270E9479040C947A05D5
:1008D0000E946C0538F00E94730520F039F49F3FA8
:1008E00019F426F40C9469050EF4E095E7FB0C94DA
:1008F0006305E92F0E948B0558F3BA176207730747
:100900008407950720F079F4A6F50C94AD050EF454
:10091000E0950B2EBA2FA02D0B01B90190010C010F
:10092000CA01A0011124FF27591B99F0593F50F427
:10093000503E68F11A16F040A22F232F342F44277F
:10094000585FF3CF469537952795A795F040539577
:10095000C9F77EF41F16BA0B620B730B840BBAF047
:100960009150A1F0FF0FBB1F661F771F881FC2F7B2
:100970000EC0BA0F621F731F841F48F487957795C6
:100980006795B795F7959E3F08F0B0CF9395880F80
:1009900008F09927EE0F9795879508950E943F05D7
:1009A00008F481E008950E94930588F09F5798F01D
:1009B000B92F9927B751B0F0E1F0660F771F881F64
:1009C000991F1AF0BA95C9F714C0B13091F00E947E
:1009D000AD05B1E008950C94AD05672F782F8827F9
:1009E000B85F39F0B93FCCF3869577956795B395A5
:1009F000D9F73EF490958095709561957F4F8F4F14
:100A00009F4F0895E89409C097FB3EF49095809518
:100A1000709561957F4F8F4F9F4F9923A9F0F92FC4
:100A200096E9BB279395F695879577956795B79542
:100A3000F111F8CFFAF4BB0F11F460FF1BC06F5F28
:100A40007F4F8F4F9F4F16C0882311F096E911C03A
:100A5000772321F09EE8872F762F05C0662371F05B
:100A600096E8862F70E060E02AF09A95660F771F6F
:100A7000881FDAF7880F9695879597F90895990F4B
:100A80000008550FAA0BE0E8FEEF16161706E80758
:100A9000F907C0F012161306E407F50798F0621B79
:100AA000730B840B950B39F40A2661F0232B242B4E
:100AB000252B21F408950A2609F4A140A6958FEF6D
:100AC000811D811D089597F99F6780E870E060E0BF
:100AD00008959FEF80EC089500240A9416161706D7
:100AE00018060906089500240A941216130614061F
:100AF00005060895092E0394000C11F4882352F082
:100B0000BB0F40F4BF2B11F460FF04C06F5F7F4F39
:100B10008F4F9F4F089557FD9058440F551F59F020
:100B20005F3F71F04795880F97FB991F61F09F3FDA
:100B300079F087950895121613061406551FF2CF03
:100B40004695F1DF08C0161617061806991FF1CF53
:100B500086957105610508940895E894BB2766277A
:100B60007727CB0197F908950E943F0508F48FEF8E
:100B700008950E94CC050C947A050E946C0538F00B
:100B80000E94730520F0952311F00C9463050C94DA
:100B9000690511240C94AE050E948B0570F3959F96
:100BA000C1F3950F50E0551F629FF001729FBB2764
:100BB000F00DB11D639FAA27F00DB11DAA1F649F00
:100BC0006627B00DA11D661F829F2227B00DA11DB3
:100BD000621F739FB00DA11D621F839FA00D611D39
:100BE000221F749F3327A00D611D231F849F600D5A
:100BF000211D822F762F6A2F11249F5750409AF083
:100C0000F1F088234AF0EE0FFF1FBB1F661F771F0E
:100C1000881F91505040A9F79E3F510580F00C94D9
:100C200063050C94AE055F3FE4F3983ED4F38695DC
:100C300077956795B795F795E7959F5FC1F7FE2B79
:100C4000880F911D9695879597F908950E943F0505
:100C5000880B990B0895A1E21A2EAA1BBB1BFD015C
:100C60000DC0AA1FBB1FEE1FFF1FA217B307E4078B
:100C7000F50720F0A21BB30BE40BF50B661F771FE3
:100C8000881F991F1A9469F76095709580959095C3
:100C90009B01AC01BD01CF010895EE0FFF1F059030
:100CA000F491E02D099481E090E0F8940C945806BA
:040CB000F894FFCFE6
:100CB400000000005B02F30062026102437572727D
:100CC400656E742069733A20006E616E00696E6609
:080CD400006F7666006D41001F
:00000001FF
